{
  "contractName": "Dex",
  "abi": [
    {
      "inputs": [
        {
          "internalType": "bytes32",
          "name": "",
          "type": "bytes32"
        },
        {
          "internalType": "enum Dex.buysell",
          "name": "",
          "type": "uint8"
        },
        {
          "internalType": "uint256",
          "name": "",
          "type": "uint256"
        }
      ],
      "name": "OrderBook",
      "outputs": [
        {
          "internalType": "uint256",
          "name": "Id",
          "type": "uint256"
        },
        {
          "internalType": "address",
          "name": "Trader",
          "type": "address"
        },
        {
          "internalType": "enum Dex.buysell",
          "name": "OrderSide",
          "type": "uint8"
        },
        {
          "internalType": "bytes32",
          "name": "Ticker",
          "type": "bytes32"
        },
        {
          "internalType": "uint256",
          "name": "Amount",
          "type": "uint256"
        },
        {
          "internalType": "uint256",
          "name": "Price",
          "type": "uint256"
        }
      ],
      "stateMutability": "view",
      "type": "function",
      "constant": true
    },
    {
      "inputs": [
        {
          "internalType": "bytes32",
          "name": "ticker",
          "type": "bytes32"
        },
        {
          "internalType": "address payable",
          "name": "tokenAddress",
          "type": "address"
        }
      ],
      "name": "addToken",
      "outputs": [],
      "stateMutability": "nonpayable",
      "type": "function"
    },
    {
      "inputs": [
        {
          "internalType": "address",
          "name": "",
          "type": "address"
        },
        {
          "internalType": "bytes32",
          "name": "",
          "type": "bytes32"
        }
      ],
      "name": "balances",
      "outputs": [
        {
          "internalType": "uint256",
          "name": "",
          "type": "uint256"
        }
      ],
      "stateMutability": "view",
      "type": "function",
      "constant": true
    },
    {
      "inputs": [
        {
          "internalType": "uint256",
          "name": "amount",
          "type": "uint256"
        },
        {
          "internalType": "bytes32",
          "name": "ticker",
          "type": "bytes32"
        }
      ],
      "name": "deposit",
      "outputs": [],
      "stateMutability": "nonpayable",
      "type": "function"
    },
    {
      "inputs": [
        {
          "internalType": "uint256",
          "name": "",
          "type": "uint256"
        }
      ],
      "name": "tokenList",
      "outputs": [
        {
          "internalType": "bytes32",
          "name": "",
          "type": "bytes32"
        }
      ],
      "stateMutability": "view",
      "type": "function",
      "constant": true
    },
    {
      "inputs": [
        {
          "internalType": "bytes32",
          "name": "",
          "type": "bytes32"
        }
      ],
      "name": "tokenMapping",
      "outputs": [
        {
          "internalType": "bytes32",
          "name": "ticker",
          "type": "bytes32"
        },
        {
          "internalType": "address payable",
          "name": "tokenAddress",
          "type": "address"
        }
      ],
      "stateMutability": "view",
      "type": "function",
      "constant": true
    },
    {
      "inputs": [
        {
          "internalType": "uint256",
          "name": "amount",
          "type": "uint256"
        },
        {
          "internalType": "bytes32",
          "name": "ticker",
          "type": "bytes32"
        }
      ],
      "name": "withdraw",
      "outputs": [],
      "stateMutability": "nonpayable",
      "type": "function"
    },
    {
      "inputs": [
        {
          "internalType": "bytes32",
          "name": "ticker",
          "type": "bytes32"
        },
        {
          "internalType": "enum Dex.buysell",
          "name": "orderSide",
          "type": "uint8"
        }
      ],
      "name": "getOrderBook",
      "outputs": [
        {
          "components": [
            {
              "internalType": "uint256",
              "name": "Id",
              "type": "uint256"
            },
            {
              "internalType": "address",
              "name": "Trader",
              "type": "address"
            },
            {
              "internalType": "enum Dex.buysell",
              "name": "OrderSide",
              "type": "uint8"
            },
            {
              "internalType": "bytes32",
              "name": "Ticker",
              "type": "bytes32"
            },
            {
              "internalType": "uint256",
              "name": "Amount",
              "type": "uint256"
            },
            {
              "internalType": "uint256",
              "name": "Price",
              "type": "uint256"
            }
          ],
          "internalType": "struct Dex.order[]",
          "name": "",
          "type": "tuple[]"
        }
      ],
      "stateMutability": "view",
      "type": "function",
      "constant": true
    },
    {
      "inputs": [
        {
          "internalType": "enum Dex.buysell",
          "name": "orderSide",
          "type": "uint8"
        },
        {
          "internalType": "bytes32",
          "name": "ticker",
          "type": "bytes32"
        },
        {
          "internalType": "uint256",
          "name": "amount",
          "type": "uint256"
        },
        {
          "internalType": "uint256",
          "name": "price",
          "type": "uint256"
        }
      ],
      "name": "createLimitOrder",
      "outputs": [
        {
          "internalType": "bool",
          "name": "success",
          "type": "bool"
        }
      ],
      "stateMutability": "nonpayable",
      "type": "function"
    }
  ],
  "bytecode": "0x608060405234801561001057600080fd5b50611540806100206000396000f3fe608060405234801561001057600080fd5b50600436106100935760003560e01c80639776aacf116100665780639776aacf1461015e5780639ead72221461017a578063a8d2021a146101aa578063ba58ea68146101c6578063c9630cb0146101f657610093565b80631f14df6914610098578063667cb4ba146100c85780636f3b62f9146100f95780639233a49714610129575b600080fd5b6100b260048036038101906100ad9190610c0b565b610212565b6040516100bf9190610c64565b60405180910390f35b6100e260048036038101906100dd9190610c7f565b610237565b6040516100f0929190610cdc565b60405180910390f35b610113600480360381019061010e9190610d56565b61027b565b6040516101209190610dd8565b60405180910390f35b610143600480360381019061013e9190610df3565b61037b565b60405161015596959493929190610ecc565b60405180910390f35b61017860048036038101906101739190610f59565b61040e565b005b610194600480360381019061018f9190610f99565b6104cc565b6040516101a19190610fc6565b60405180910390f35b6101c460048036038101906101bf9190610fe1565b6104f0565b005b6101e060048036038101906101db9190611021565b6107a8565b6040516101ed91906111c7565b60405180910390f35b610210600480360381019061020b9190610fe1565b610909565b005b6002602052816000526040600020602052806000526040600020600091509150505481565b60006020528060005260406000206000915090508060000154908060010160009054906101000a900473ffffffffffffffffffffffffffffffffffffffff16905082565b60008060018111156102905761028f610e55565b5b8560018111156102a3576102a2610e55565b5b141561036f576102bc8284610b3090919063ffffffff16565b600260003373ffffffffffffffffffffffffffffffffffffffff1673ffffffffffffffffffffffffffffffffffffffff16815260200190815260200160002060007f4554480000000000000000000000000000000000000000000000000000000000815260200190815260200160002054101561036e576040517f08c379a000000000000000000000000000000000000000000000000000000000815260040161036590611246565b60405180910390fd5b5b60019050949350505050565b600360205282600052604060002060205281600052604060002081815481106103a357600080fd5b906000526020600020906005020160009250925050508060000154908060010160009054906101000a900473ffffffffffffffffffffffffffffffffffffffff16908060010160149054906101000a900460ff16908060020154908060030154908060040154905086565b60405180604001604052808381526020018273ffffffffffffffffffffffffffffffffffffffff168152506000808481526020019081526020016000206000820151816000015560208201518160010160006101000a81548173ffffffffffffffffffffffffffffffffffffffff021916908373ffffffffffffffffffffffffffffffffffffffff16021790555090505060018290806001815401808255809150506001900390600052602060002001600090919091909150555050565b600181815481106104dc57600080fd5b906000526020600020016000915090505481565b80600073ffffffffffffffffffffffffffffffffffffffff1660008083815260200190815260200160002060010160009054906101000a900473ffffffffffffffffffffffffffffffffffffffff1673ffffffffffffffffffffffffffffffffffffffff161415610596576040517f08c379a000000000000000000000000000000000000000000000000000000000815260040161058d906112b2565b60405180910390fd5b82600260003373ffffffffffffffffffffffffffffffffffffffff1673ffffffffffffffffffffffffffffffffffffffff1681526020019081526020016000206000848152602001908152602001600020541015610629576040517f08c379a00000000000000000000000000000000000000000000000000000000081526004016106209061131e565b60405180910390fd5b61068c83600260003373ffffffffffffffffffffffffffffffffffffffff1673ffffffffffffffffffffffffffffffffffffffff168152602001908152602001600020600085815260200190815260200160002054610b4690919063ffffffff16565b600260003373ffffffffffffffffffffffffffffffffffffffff1673ffffffffffffffffffffffffffffffffffffffff16815260200190815260200160002060008481526020019081526020016000208190555060008083815260200190815260200160002060010160009054906101000a900473ffffffffffffffffffffffffffffffffffffffff1673ffffffffffffffffffffffffffffffffffffffff1663a9059cbb33856040518363ffffffff1660e01b815260040161075092919061133e565b602060405180830381600087803b15801561076a57600080fd5b505af115801561077e573d6000803e3d6000fd5b505050506040513d601f19601f820116820180604052508101906107a29190611393565b50505050565b60606003600084815260200190815260200160002060008360018111156107d2576107d1610e55565b5b60018111156107e4576107e3610e55565b5b8152602001908152602001600020805480602002602001604051908101604052809291908181526020016000905b828210156108fd57838290600052602060002090600502016040518060c0016040529081600082015481526020016001820160009054906101000a900473ffffffffffffffffffffffffffffffffffffffff1673ffffffffffffffffffffffffffffffffffffffff1673ffffffffffffffffffffffffffffffffffffffff1681526020016001820160149054906101000a900460ff1660018111156108ba576108b9610e55565b5b60018111156108cc576108cb610e55565b5b8152602001600282015481526020016003820154815260200160048201548152505081526020019060010190610812565b50505050905092915050565b80600073ffffffffffffffffffffffffffffffffffffffff1660008083815260200190815260200160002060010160009054906101000a900473ffffffffffffffffffffffffffffffffffffffff1673ffffffffffffffffffffffffffffffffffffffff1614156109af576040517f08c379a00000000000000000000000000000000000000000000000000000000081526004016109a6906112b2565b60405180910390fd5b610a1283600260003373ffffffffffffffffffffffffffffffffffffffff1673ffffffffffffffffffffffffffffffffffffffff168152602001908152602001600020600085815260200190815260200160002054610b5c90919063ffffffff16565b600260003373ffffffffffffffffffffffffffffffffffffffff1673ffffffffffffffffffffffffffffffffffffffff16815260200190815260200160002060008481526020019081526020016000208190555060008083815260200190815260200160002060010160009054906101000a900473ffffffffffffffffffffffffffffffffffffffff1673ffffffffffffffffffffffffffffffffffffffff166323b872dd3330866040518463ffffffff1660e01b8152600401610ad8939291906113c0565b602060405180830381600087803b158015610af257600080fd5b505af1158015610b06573d6000803e3d6000fd5b505050506040513d601f19601f82011682018060405250810190610b2a9190611393565b50505050565b60008183610b3e9190611426565b905092915050565b60008183610b549190611480565b905092915050565b60008183610b6a91906114b4565b905092915050565b600080fd5b600073ffffffffffffffffffffffffffffffffffffffff82169050919050565b6000610ba282610b77565b9050919050565b610bb281610b97565b8114610bbd57600080fd5b50565b600081359050610bcf81610ba9565b92915050565b6000819050919050565b610be881610bd5565b8114610bf357600080fd5b50565b600081359050610c0581610bdf565b92915050565b60008060408385031215610c2257610c21610b72565b5b6000610c3085828601610bc0565b9250506020610c4185828601610bf6565b9150509250929050565b6000819050919050565b610c5e81610c4b565b82525050565b6000602082019050610c796000830184610c55565b92915050565b600060208284031215610c9557610c94610b72565b5b6000610ca384828501610bf6565b91505092915050565b610cb581610bd5565b82525050565b6000610cc682610b77565b9050919050565b610cd681610cbb565b82525050565b6000604082019050610cf16000830185610cac565b610cfe6020830184610ccd565b9392505050565b60028110610d1257600080fd5b50565b600081359050610d2481610d05565b92915050565b610d3381610c4b565b8114610d3e57600080fd5b50565b600081359050610d5081610d2a565b92915050565b60008060008060808587031215610d7057610d6f610b72565b5b6000610d7e87828801610d15565b9450506020610d8f87828801610bf6565b9350506040610da087828801610d41565b9250506060610db187828801610d41565b91505092959194509250565b60008115159050919050565b610dd281610dbd565b82525050565b6000602082019050610ded6000830184610dc9565b92915050565b600080600060608486031215610e0c57610e0b610b72565b5b6000610e1a86828701610bf6565b9350506020610e2b86828701610d15565b9250506040610e3c86828701610d41565b9150509250925092565b610e4f81610b97565b82525050565b7f4e487b7100000000000000000000000000000000000000000000000000000000600052602160045260246000fd5b60028110610e9557610e94610e55565b5b50565b6000819050610ea682610e84565b919050565b6000610eb682610e98565b9050919050565b610ec681610eab565b82525050565b600060c082019050610ee16000830189610c55565b610eee6020830188610e46565b610efb6040830187610ebd565b610f086060830186610cac565b610f156080830185610c55565b610f2260a0830184610c55565b979650505050505050565b610f3681610cbb565b8114610f4157600080fd5b50565b600081359050610f5381610f2d565b92915050565b60008060408385031215610f7057610f6f610b72565b5b6000610f7e85828601610bf6565b9250506020610f8f85828601610f44565b9150509250929050565b600060208284031215610faf57610fae610b72565b5b6000610fbd84828501610d41565b91505092915050565b6000602082019050610fdb6000830184610cac565b92915050565b60008060408385031215610ff857610ff7610b72565b5b600061100685828601610d41565b925050602061101785828601610bf6565b9150509250929050565b6000806040838503121561103857611037610b72565b5b600061104685828601610bf6565b925050602061105785828601610d15565b9150509250929050565b600081519050919050565b600082825260208201905092915050565b6000819050602082019050919050565b61109681610c4b565b82525050565b6110a581610b97565b82525050565b6110b481610eab565b82525050565b6110c381610bd5565b82525050565b60c0820160008201516110df600085018261108d565b5060208201516110f2602085018261109c565b50604082015161110560408501826110ab565b50606082015161111860608501826110ba565b50608082015161112b608085018261108d565b5060a082015161113e60a085018261108d565b50505050565b600061115083836110c9565b60c08301905092915050565b6000602082019050919050565b600061117482611061565b61117e818561106c565b93506111898361107d565b8060005b838110156111ba5781516111a18882611144565b97506111ac8361115c565b92505060018101905061118d565b5085935050505092915050565b600060208201905081810360008301526111e18184611169565b905092915050565b600082825260208201905092915050565b7f496e73756666696369656e742062616c616e6365000000000000000000000000600082015250565b60006112306014836111e9565b915061123b826111fa565b602082019050919050565b6000602082019050818103600083015261125f81611223565b9050919050565b7f546f6b656e20646f6573206e6f74206578697374000000000000000000000000600082015250565b600061129c6014836111e9565b91506112a782611266565b602082019050919050565b600060208201905081810360008301526112cb8161128f565b9050919050565b7f496e73756666696369656e742066756e64730000000000000000000000000000600082015250565b60006113086012836111e9565b9150611313826112d2565b602082019050919050565b60006020820190508181036000830152611337816112fb565b9050919050565b60006040820190506113536000830185610e46565b6113606020830184610c55565b9392505050565b61137081610dbd565b811461137b57600080fd5b50565b60008151905061138d81611367565b92915050565b6000602082840312156113a9576113a8610b72565b5b60006113b78482850161137e565b91505092915050565b60006060820190506113d56000830186610e46565b6113e26020830185610e46565b6113ef6040830184610c55565b949350505050565b7f4e487b7100000000000000000000000000000000000000000000000000000000600052601160045260246000fd5b600061143182610c4b565b915061143c83610c4b565b9250817fffffffffffffffffffffffffffffffffffffffffffffffffffffffffffffffff0483118215151615611475576114746113f7565b5b828202905092915050565b600061148b82610c4b565b915061149683610c4b565b9250828210156114a9576114a86113f7565b5b828203905092915050565b60006114bf82610c4b565b91506114ca83610c4b565b9250827fffffffffffffffffffffffffffffffffffffffffffffffffffffffffffffffff038211156114ff576114fe6113f7565b5b82820190509291505056fea2646970667358221220043d3c7da08f34d77d215196c6896c90c6df77aa5287c4a4c3aa671f331f3f1364736f6c63430008090033",
  "immutableReferences": {},
  "source": "pragma solidity ^0.8.0;\npragma experimental ABIEncoderV2;\n\nimport \"./Wallet.sol\";\n\ncontract Dex is Wallet {\n    using SafeMath for uint256;\n\n    enum buysell {\n        BUY,\n        SELL\n    }\n\n    struct order {\n        uint Id;\n        address Trader;\n        buysell OrderSide;\n        bytes32 Ticker;\n        uint Amount;\n        uint Price;\n    }\n\n    mapping(bytes32 => mapping(buysell => order[])) public OrderBook; \n\n    function getOrderBook(bytes32 ticker, buysell orderSide) view public returns(order[] memory){\n        return OrderBook[ticker][orderSide];\n    }\n\n    function createLimitOrder(buysell orderSide, bytes32 ticker, uint amount, uint price) public returns(bool success){\n        if (orderSide == buysell.BUY){\n            require(balances[msg.sender][\"ETH\"] >= amount.mul(price), \"Insufficient balance\");\n        }\n        return true;\n    }\n}",
  "sourcePath": "/Users/adilanees/Documents/Blockchain/Truffle/MyDEX/contracts/Dex.sol",
  "compiler": {
    "name": "solc",
    "version": "0.8.9+commit.e5eed63a.Emscripten.clang"
  },
  "schemaVersion": "3.2.3",
  "updatedAt": "2021-10-05T21:52:40.134Z",
  "networkType": "ethereum",
  "devdoc": {
    "kind": "dev",
    "methods": {},
    "version": 1
  },
  "userdoc": {
    "kind": "user",
    "methods": {},
    "version": 1
  }
}