{
  "contractName": "Wallet",
  "abi": [
    {
      "inputs": [
        {
          "internalType": "address",
          "name": "",
          "type": "address"
        },
        {
          "internalType": "bytes32",
          "name": "",
          "type": "bytes32"
        }
      ],
      "name": "balances",
      "outputs": [
        {
          "internalType": "uint256",
          "name": "",
          "type": "uint256"
        }
      ],
      "stateMutability": "view",
      "type": "function",
      "constant": true
    },
    {
      "inputs": [
        {
          "internalType": "uint256",
          "name": "",
          "type": "uint256"
        }
      ],
      "name": "tokenList",
      "outputs": [
        {
          "internalType": "bytes32",
          "name": "",
          "type": "bytes32"
        }
      ],
      "stateMutability": "view",
      "type": "function",
      "constant": true
    },
    {
      "inputs": [
        {
          "internalType": "bytes32",
          "name": "",
          "type": "bytes32"
        }
      ],
      "name": "tokenMapping",
      "outputs": [
        {
          "internalType": "bytes32",
          "name": "ticker",
          "type": "bytes32"
        },
        {
          "internalType": "address payable",
          "name": "tokenAddress",
          "type": "address"
        }
      ],
      "stateMutability": "view",
      "type": "function",
      "constant": true
    },
    {
      "inputs": [
        {
          "internalType": "bytes32",
          "name": "ticker",
          "type": "bytes32"
        },
        {
          "internalType": "address payable",
          "name": "tokenAddress",
          "type": "address"
        }
      ],
      "name": "addToken",
      "outputs": [],
      "stateMutability": "nonpayable",
      "type": "function"
    },
    {
      "inputs": [
        {
          "internalType": "uint256",
          "name": "amount",
          "type": "uint256"
        },
        {
          "internalType": "bytes32",
          "name": "ticker",
          "type": "bytes32"
        }
      ],
      "name": "deposit",
      "outputs": [],
      "stateMutability": "nonpayable",
      "type": "function"
    },
    {
      "inputs": [
        {
          "internalType": "uint256",
          "name": "amount",
          "type": "uint256"
        },
        {
          "internalType": "bytes32",
          "name": "ticker",
          "type": "bytes32"
        }
      ],
      "name": "withdraw",
      "outputs": [],
      "stateMutability": "nonpayable",
      "type": "function"
    }
  ],
  "bytecode": "0x608060405234801561001057600080fd5b50610d01806100206000396000f3fe608060405234801561001057600080fd5b50600436106100625760003560e01c80631f14df6914610067578063667cb4ba146100975780639776aacf146100c85780639ead7222146100e4578063a8d2021a14610114578063c9630cb014610130575b600080fd5b610081600480360381019061007c919061080b565b61014c565b60405161008e9190610ab8565b60405180910390f35b6100b160048036038101906100ac9190610878565b610171565b6040516100bf929190610a4f565b60405180910390f35b6100e260048036038101906100dd91906108a5565b6101b5565b005b6100fe60048036038101906100f991906108e5565b610273565b60405161010b9190610a34565b60405180910390f35b61012e60048036038101906101299190610912565b610297565b005b61014a60048036038101906101459190610912565b61054f565b005b6002602052816000526040600020602052806000526040600020600091509150505481565b60006020528060005260406000206000915090508060000154908060010160009054906101000a900473ffffffffffffffffffffffffffffffffffffffff16905082565b60405180604001604052808381526020018273ffffffffffffffffffffffffffffffffffffffff168152506000808481526020019081526020016000206000820151816000015560208201518160010160006101000a81548173ffffffffffffffffffffffffffffffffffffffff021916908373ffffffffffffffffffffffffffffffffffffffff16021790555090505060018290806001815401808255809150506001900390600052602060002001600090919091909150555050565b6001818154811061028357600080fd5b906000526020600020016000915090505481565b80600073ffffffffffffffffffffffffffffffffffffffff1660008083815260200190815260200160002060010160009054906101000a900473ffffffffffffffffffffffffffffffffffffffff1673ffffffffffffffffffffffffffffffffffffffff16141561033d576040517f08c379a000000000000000000000000000000000000000000000000000000000815260040161033490610a78565b60405180910390fd5b82600260003373ffffffffffffffffffffffffffffffffffffffff1673ffffffffffffffffffffffffffffffffffffffff16815260200190815260200160002060008481526020019081526020016000205410156103d0576040517f08c379a00000000000000000000000000000000000000000000000000000000081526004016103c790610a98565b60405180910390fd5b61043383600260003373ffffffffffffffffffffffffffffffffffffffff1673ffffffffffffffffffffffffffffffffffffffff16815260200190815260200160002060008581526020019081526020016000205461077690919063ffffffff16565b600260003373ffffffffffffffffffffffffffffffffffffffff1673ffffffffffffffffffffffffffffffffffffffff16815260200190815260200160002060008481526020019081526020016000208190555060008083815260200190815260200160002060010160009054906101000a900473ffffffffffffffffffffffffffffffffffffffff1673ffffffffffffffffffffffffffffffffffffffff1663a9059cbb33856040518363ffffffff1660e01b81526004016104f7929190610a0b565b602060405180830381600087803b15801561051157600080fd5b505af1158015610525573d6000803e3d6000fd5b505050506040513d601f19601f82011682018060405250810190610549919061084b565b50505050565b80600073ffffffffffffffffffffffffffffffffffffffff1660008083815260200190815260200160002060010160009054906101000a900473ffffffffffffffffffffffffffffffffffffffff1673ffffffffffffffffffffffffffffffffffffffff1614156105f5576040517f08c379a00000000000000000000000000000000000000000000000000000000081526004016105ec90610a78565b60405180910390fd5b61065883600260003373ffffffffffffffffffffffffffffffffffffffff1673ffffffffffffffffffffffffffffffffffffffff16815260200190815260200160002060008581526020019081526020016000205461078c90919063ffffffff16565b600260003373ffffffffffffffffffffffffffffffffffffffff1673ffffffffffffffffffffffffffffffffffffffff16815260200190815260200160002060008481526020019081526020016000208190555060008083815260200190815260200160002060010160009054906101000a900473ffffffffffffffffffffffffffffffffffffffff1673ffffffffffffffffffffffffffffffffffffffff166323b872dd3330866040518463ffffffff1660e01b815260040161071e939291906109d4565b602060405180830381600087803b15801561073857600080fd5b505af115801561074c573d6000803e3d6000fd5b505050506040513d601f19601f82011682018060405250810190610770919061084b565b50505050565b600081836107849190610b3a565b905092915050565b6000818361079a9190610ae4565b905092915050565b6000813590506107b181610c58565b92915050565b6000813590506107c681610c6f565b92915050565b6000815190506107db81610c86565b92915050565b6000813590506107f081610c9d565b92915050565b60008135905061080581610cb4565b92915050565b6000806040838503121561082257610821610c01565b5b6000610830858286016107a2565b9250506020610841858286016107e1565b9150509250929050565b60006020828403121561086157610860610c01565b5b600061086f848285016107cc565b91505092915050565b60006020828403121561088e5761088d610c01565b5b600061089c848285016107e1565b91505092915050565b600080604083850312156108bc576108bb610c01565b5b60006108ca858286016107e1565b92505060206108db858286016107b7565b9150509250929050565b6000602082840312156108fb576108fa610c01565b5b6000610909848285016107f6565b91505092915050565b6000806040838503121561092957610928610c01565b5b6000610937858286016107f6565b9250506020610948858286016107e1565b9150509250929050565b61095b81610b80565b82525050565b61096a81610b6e565b82525050565b61097981610b9e565b82525050565b600061098c601483610ad3565b915061099782610c06565b602082019050919050565b60006109af601283610ad3565b91506109ba82610c2f565b602082019050919050565b6109ce81610bc8565b82525050565b60006060820190506109e96000830186610961565b6109f66020830185610961565b610a0360408301846109c5565b949350505050565b6000604082019050610a206000830185610961565b610a2d60208301846109c5565b9392505050565b6000602082019050610a496000830184610970565b92915050565b6000604082019050610a646000830185610970565b610a716020830184610952565b9392505050565b60006020820190508181036000830152610a918161097f565b9050919050565b60006020820190508181036000830152610ab1816109a2565b9050919050565b6000602082019050610acd60008301846109c5565b92915050565b600082825260208201905092915050565b6000610aef82610bc8565b9150610afa83610bc8565b9250827fffffffffffffffffffffffffffffffffffffffffffffffffffffffffffffffff03821115610b2f57610b2e610bd2565b5b828201905092915050565b6000610b4582610bc8565b9150610b5083610bc8565b925082821015610b6357610b62610bd2565b5b828203905092915050565b6000610b7982610ba8565b9050919050565b6000610b8b82610ba8565b9050919050565b60008115159050919050565b6000819050919050565b600073ffffffffffffffffffffffffffffffffffffffff82169050919050565b6000819050919050565b7f4e487b7100000000000000000000000000000000000000000000000000000000600052601160045260246000fd5b600080fd5b7f546f6b656e20646f6573206e6f74206578697374000000000000000000000000600082015250565b7f496e73756666696369656e742066756e64730000000000000000000000000000600082015250565b610c6181610b6e565b8114610c6c57600080fd5b50565b610c7881610b80565b8114610c8357600080fd5b50565b610c8f81610b92565b8114610c9a57600080fd5b50565b610ca681610b9e565b8114610cb157600080fd5b50565b610cbd81610bc8565b8114610cc857600080fd5b5056fea2646970667358221220dfaa3c66dbfc1d365da31f49b40f62cf1aa2f72feecf2756ce8c52007972bc7a64736f6c63430008070033",
  "immutableReferences": {},
  "source": "pragma solidity ^0.8.0;\n\nimport \"../node_modules/@openzeppelin/contracts/token/ERC20/IERC20.sol\";\nimport \"../node_modules/@openzeppelin/contracts/utils/math/SafeMath.sol\";\n\ncontract Wallet {\n    using SafeMath for uint256;\n\n    struct Token {\n        bytes32 ticker;\n        address payable tokenAddress;\n    }\n    mapping(bytes32 => Token) public tokenMapping;\n    bytes32[] public tokenList;\n\n    modifier tokenExist(bytes32 ticker) {\n        require(tokenMapping[ticker].tokenAddress != address(0), \"Token does not exist\");\n        _;\n    }\n\n    mapping(address => mapping(bytes32 => uint256)) public balances;\n\n    function addToken(bytes32 ticker, address payable tokenAddress) external {\n        tokenMapping[ticker] = Token(ticker,tokenAddress);\n        tokenList.push(ticker);\n    }\n\n    function deposit(uint256 amount, bytes32 ticker) tokenExist(ticker) external {\n        balances[msg.sender][ticker] = balances[msg.sender][ticker].add(amount);\n        IERC20(tokenMapping[ticker].tokenAddress).transferFrom(msg.sender, address(this), amount);\n    }\n\n    function withdraw(uint256 amount, bytes32 ticker) tokenExist(ticker) external {\n        require(balances[msg.sender][ticker] >= amount, \"Insufficient funds\");\n        balances[msg.sender][ticker] = balances[msg.sender][ticker].sub(amount);\n        IERC20(tokenMapping[ticker].tokenAddress).transfer(msg.sender,amount);\n    }\n}",
  "sourcePath": "/Users/adilanees/Documents/Blockchain/Truffle/MyDEX/contracts/Wallet.sol",
  "compiler": {
    "name": "solc",
    "version": "0.8.7+commit.e28d00a7.Emscripten.clang"
  },
  "schemaVersion": "3.2.3",
  "updatedAt": "2021-09-23T23:19:39.961Z",
  "networkType": "ethereum",
  "devdoc": {
    "kind": "dev",
    "methods": {},
    "version": 1
  },
  "userdoc": {
    "kind": "user",
    "methods": {},
    "version": 1
  }
}